S028000074656D70657261747572655F616D7069656E745F74656D705F636F6E74726F6C2E737265638C
S11300000C942A000C9447000C9447000C9447006D
S11300100C9447000C9447000C9447000C94470040
S11300200C9447000C9447000C9447000C949907D7
S11300300C9447000C9447000C9447000C94470020
S11300400C9447000C9447000C9447000C94470010
S11300500C94470011241FBECFE5D8E0DEBFCDBF0E
S113006010E0A0E6B0E0E6E0F4E102C005900D92F5
S1130070AE3CB107D9F710E0AEECB0E001C01D9280
S1130080A43EB107E1F70E9471050C94010A0C9497
S113009000003E9A3F9A379A329A319A0895369AD6
S11300A03699FECF84B190E045B1342F20E0822B05
S11300B0932B08950E944F009C01880F991F820F73
S11300C0931F880F991F880F991F880F991F820FFC
S11300D0931F0895843409F471C0853448F482343C
S11300E099F1833408F04DC0813409F083C00FC006
S11300F0823651F1833620F4813609F07BC007C083
S1130100833609F43EC0843609F074C057C04130C8
S113011069F42AB381E090E0AC0102C0440F551F9A
S11301206A95E2F7BA01622B6ABB08952AB381E0AB
S113013090E0AC0102C0440F551F6A95E2F7BA0182
S1130140609562236ABB0895413069F427B381E066
S113015090E0AC0102C0440F551F6A95E2F7BA0162
S1130160622B67BB089527B381E090E0AC0102C025
S1130170440F551F6A95E2F7BA016095622367BB85
S11301800895413069F424B381E090E0AC0102C0E9
S1130190440F551F6A95E2F7BA01622B64BB0895B8
S11301A024B381E090E0AC0102C0440F551F6A956E
S11301B0E2F7BA016095622364BB0895413069F4A3
S11301C021B381E090E0AC0102C0440F551F6A9551
S11301D0E2F7BA01622B61BB089521B381E090E09C
S11301E0AC0102C0440F551F6A95E2F7BA0160954D
S11301F0622361BB0895843409F471C0853448F4E2
S1130200823499F1833408F04DC0813409F083C0FD
S11302100FC0823651F1833620F4813609F07BC059
S113022007C0833609F43EC0843609F074C057C051
S1130230413069F42BB381E090E0AC0102C0440F7B
S1130240551F6A95E2F7BA01622B6BBB08952BB375
S113025081E090E0AC0102C0440F551F6A95E2F7BB
S1130260BA01609562236BBB0895413069F428B3E9
S113027081E090E0AC0102C0440F551F6A95E2F79B
S1130280BA01622B68BB089528B381E090E0AC0109
S113029002C0440F551F6A95E2F7BA0160956223C4
S11302A068BB0895413069F425B381E090E0AC0166
S11302B002C0440F551F6A95E2F7BA01622B65BB71
S11302C0089525B381E090E0AC0102C0440F551FAE
S11302D06A95E2F7BA016095622365BB08954130DF
S11302E069F422B381E090E0AC0102C0440F551FD1
S11302F06A95E2F7BA01622B62BB089522B381E0EA
S113030090E0AC0102C0440F551F6A95E2F7BA01B0
S11303106095622362BB08958434B1F1853438F466
S11303208234E1F0833428F58134C1F50CC082367F
S1130330A9F0833618F4813689F505C08336C9F0EF
S1130340843661F521C029B330E0C90102C0959516
S113035087956A95E2F7982F917020C026B330E014
S1130360C90102C0959587956A95E2F7982F917017
S113037015C023B330E0C90102C0959587956A95ED
S1130380E2F7982F91700AC020B330E0C90102C08F
S1130390959587956A95E2F7982F9170892F08951E
S11303A0843409F43DC0853440F48234F9F0833454
S11303B050F5813409F040C00CC08236B9F0833660
S11303C018F48136C9F505C08336E9F08436A1F501
S11303D027C02BB381E090E0AC0102C0440F551F4D
S11303E06A95E2F7BA0162276BBB089528B381E0EE
S11303F090E0AC0102C0440F551F6A95E2F7BA01C0
S1130400622768BB089525B381E090E0AC0102C087
S1130410440F551F6A95E2F7BA01622765BB089538
S113042022B381E090E0AC0102C0440F551F6A95ED
S1130430E2F7BA01622762BB08958434D9F08534A7
S113044038F4823499F0833498F48134A1F40CC0E4
S1130450823661F0833618F4813669F405C0833638
S113046039F0843641F406C06ABB089567BB089529
S113047064BB089561BB08958434D9F0853438F49D
S1130480823499F0833498F48134A1F40CC0823618
S113049061F0833618F4813669F405C0833639F087
S11304A0843641F406C06BBB089568BB089565BBF0
S11304B0089562BB08958434D9F0853438F48234C5
S11304C099F0833498F48134A1F40CC0823661F03D
S11304D0833618F4813669F405C0833639F08436DE
S11304E041F406C089B3089586B3089583B308958B
S11304F080B30895843409F1853438F48234A9F042
S11305008334B8F48134E1F40CC0823671F083365C
S113051018F48136A9F405C0833659F0843681F481
S11305200CC08BB380958BBB089588B3809588BB32
S1130530089585B3809585BB089582B3809582BB69
S11305400895843409F480C0853448F48234C1F1B8
S1130550833408F057C0813409F097C00FC0823645
S113056079F1833620F4813609F08FC007C08336D1
S113057009F448C0843609F088C066C0413091F45B
S11305802BB381E090E0AC0102C0440F551F6A9583
S1130590E2F7BA01822F842B8BBB8AB36095682360
S11305A06ABB08952BB381E090E0AC0102C0440F14
S11305B0551F6A95E2F7BA01609562236BBB0895F3
S11305C0413091F428B381E090E0AC0102C0440FC3
S11305D0551F6A95E2F7BA01822F842B88BB87B333
S11305E06095682367BB089528B381E090E0AC016F
S11305F002C0440F551F6A95E2F7BA016095622361
S113060068BB0895413091F425B381E090E0AC01DA
S113061002C0440F551F6A95E2F7BA01822F842B5A
S113062085BB84B36095682364BB089525B381E0DA
S113063090E0AC0102C0440F551F6A95E2F7BA017D
S11306406095622365BB0895413091F422B381E043
S113065090E0AC0102C0440F551F6A95E2F7BA015D
S1130660822F842B82BB81B36095682361BB08957C
S113067022B381E090E0AC0102C0440F551F6A959B
S1130680E2F7BA016095622362BB08956F70843407
S113069051F1853438F48234C1F08334E8F4813480
S11306A041F50CC0823689F0833618F4813609F599
S11306B005C0833689F08436E1F415C08BB3807F9E
S11306C08BBB8BB3682B6BBB089588B3807F88BBCF
S11306D088B3682B68BB089585B3807F85BB85B3D9
S11306E0682B65BB089582B3807F82BB82B3682B7D
S11306F062BB08956295607F843451F1853438F487
S11307008234C1F08334E8F4813441F50CC082367C
S113071089F0833618F4813609F505C0833689F0EB
S11307208436E1F415C08BB38F708BBB8BB3682B0D
S11307306BBB089588B38F7088BB88B3682B68BB84
S1130740089585B38F7085BB85B3682B65BB089509
S113075082B38F7082BB82B3682B62BB0895CF9241
S1130760DF92EF92FF920F931F93CF93DF936C016D
S1130770FB01309761F1CB01C0E0D0E02AE030E02A
S11307802196B9010E94B809CB010097C9F71C163C
S11307901D06CCF486010C0F1D1F20E030E00F2E47
S11307A0FAE0EF2EFF24F02DCF01B7010E94B80923
S11307B0E62FF72F805DD8018E938D012F5F3F4F79
S11307C02C173D0789F7CC0DDD1D188204C080E38A
S11307D0F60180831182DF91CF911F910F91FF90D9
S11307E0EF90DF90CF900895CF93C82F60E041E061
S11307F00E946A008C2F61E041E00E946A008C2F05
S113080062E041E00E946A008C2F63E041E00E94B4
S11308106A008C2F64E041E00E94A1028C2F65E005
S113082041E00E94A1028C2F66E041E00E94A102F7
S11308308C2F67E041E00E94A102CF910895FF92BE
S11308400F931F93CF93DF930F92CDB7DEB7082F8B
S11308508FEF8983FF24802F60E041E00E94FB003A
S1130860802F61E041E00E94FB00802F62E041E0C4
S11308700E94FB00802F63E041E00E94FB00802F78
S11308806F2D40E00E94FB0010E0612F6C5F802F11
S11308900E948C01882369F4EF2DF0E0EE0FFF1F16
S11308A0EE0FFF1FE10FF11DE05AFF4F8081898396
S11308B004C01F5F143049F708C089810F90DF918D
S11308C0CF911F910F91FF900895F39484E0F8164F
S11308D011F6F3CF84E464E041E00E94FB008FE969
S11308E09FE00197F1F700C0000084E464E040E079
S11308F00E94FB008FE99FE00197F1F700C0000020
S11309000895CF93C82F682F62956F7084E490E0A8
S113091070E00E94460384E465E040E00E94FB002E
S11309200E946A048FEC97E00197F1F700C0000081
S113093084E490E06C2F70E00E9446030E946A04F5
S11309408FEC97E00197F1F700C00000CF91089574
S113095084E460E041E00E946A0084E461E041E0F4
S11309600E946A0084E462E041E00E946A0084E438
S113097063E041E00E946A0084E464E041E00E9494
S11309806A0084E465E041E00E946A0082E00E941B
S113099081048FE19EE40197F1F700C0000088E232
S11309A00E9481048FEC97E00197F1F700C00000EA
S11309B081E00E9481048FE19EE40197F1F700C079
S11309C0000086E00E9481048FEC97E00197F1F724
S11309D000C000008EE00E9481048FEC97E0019734
S11309E0F1F700C000000895CF93C82F682F6295D7
S11309F06F7084E490E070E00E94460384E465E054
S1130A0041E00E94FB000E946A048FEC97E001978A
S1130A10F1F700C0000084E490E06C2F70E00E94C5
S1130A2046030E946A048FEC97E00197F1F700C037
S1130A300000CF910895CF93DF93EC018881882340
S1130A4031F021960E94F40489918823D9F78FEC20
S1130A5097E00197F1F700C00000DF91CF9108956E
S1130A6081E00E9481048FE19EE40197F1F700C0C8
S1130A7000000895282F2150223070F4662371F06D
S1130A80613170F4813019F4962F91580AC0823084
S1130A9041F4962F915405C090E803C090E801C03A
S1130AA090E8892F0E9481048FEC97E00197F1F779
S1130AB000C00000089540E00E946A0008950E946A
S1130AC08C01089541E00E946A00089541E00E946B
S1130AD0FB00089540E00E94FB0008950E94D001AD
S1130AE008950E9449000E94A80483E60E94F4032A
S1130AF08CE00E94810482E660E00E94620582E646
S1130B0061E00E94620582E664E00E94620580E77B
S1130B1090E00E941B0583E60E941F048093CC0092
S1130B208F3FC9F30E94F4048FEF91EEA4E081504B
S1130B309040A040E1F700C000008091CC00880FF5
S1130B40982F990F990F890F805E8093CE0083E6CA
S1130B500E941F048093CC008F3FC9F30E94F404C9
S1130B608FEF91EEA4E081509040A040E1F700C0E7
S1130B7000002091CC0020532093CF008091CE0020
S1130B8090E0820F911D880F991F82959295907F16
S1130B909827807F98279093D7008093D60082E08F
S1130BA061E00E943A058DE790E00E941B0583E610
S1130BB00E941F048093CC008F3FC9F30E94F40469
S1130BC08FEF91EEA4E081509040A040E1F700C087
S1130BD000008091CC00880F982F990F990F890FEE
S1130BE0805E8093CE0083E60E941F048093CC0035
S1130BF08F3FC9F30E94F4048FEF91EEA4E081507B
S1130C009040A040E1F700C000002091CC002053A8
S1130C102093CF008091CE0090E0820F911D880F29
S1130C20991F82959295907F9827807F982790931B
S1130C30E3008093E2000E9430058AE890E00E947D
S1130C401B058FEF94E3ACE081509040A040E1F7A6
S1130C5000C000000E94300580E40E94200886E95C
S1130C6090E00E941B05C8EDD0E00F2EFDE9CF2EC9
S1130C70F0E0DF2EF02D0F2EFDEBEF2EF0E0FF2E37
S1130C80F02D1AEF0F2EF3EB8F2EF0E09F2EF02DA8
S1130C9002E30F2EF5EAAF2EF0E0BF2EF02D0E94F6
S1130CA04F00BC0180E090E00E94C70820E030E0E3
S1130CB040E85EE30E9455090E949B08AB01BC0119
S1130CC05093D5004093D4004A30510508F076C0C3
S1130CD082E661E00E946A0581E066E00E943A05CE
S1130CE06091D4007091D500CE010E94AF03CE0173
S1130CF00E941B058FED0E94F40483E60E94F40415
S1130D0080E20E94F40480E20E94F404BB9882E032
S1130D1061E00E943A05C6010E941B0580E20E9420
S1130D20F40480E20E94F40480E20E94F40480E26D
S1130D300E94F40480E20E94F40480E20E94F4041D
S1130D4080E20E94F40480E20E94F4042091D20024
S1130D503091D3008091D6009091D700281739079D
S1130D6048F482E660E00E94660582E664E00E9440
S1130D706A0595CF2091D2003091D3008217930752
S1130D80A0F48091D0009091D1002091E2003091A4
S1130D90E3008217930748F482E664E00E94660544
S1130DA082E660E00E946A057ACF1092D300109226
S1130DB0D2001092D1001092D00071CF423351056D
S1130DC0B0F5BB9881E066E00E943A056091D400DA
S1130DD07091D500CE010E94AF03CE010E941B0585
S1130DE08FED0E94F40483E60E94F40480E20E94E2
S1130DF0F40480E20E94F40482E061E00E943A0577
S1130E00C5010E941B0580E20E94F40480E20E9456
S1130E10F40482E664E00E94660582E660E00E94D3
S1130E20660582E661E00E946A051CBE38CF46343E
S1130E30510508F042C081E066E00E943A056091E5
S1130E40D4007091D500CE010E94AF03CE010E9460
S1130E501B058FED0E94F40483E60E94F40480E2F3
S1130E600E94F40480E20E94F40482E061E00E94A3
S1130E703A05C4010E941B0580E20E94F40480E24A
S1130E800E94F40480E20E94F40480E20E94F404CC
S1130E9080E20E94F40480E20E94F40482E664E0AA
S1130EA00E94660582E660E00E94660582E661E0D3
S1130EB00E9466050CBFBB9AF2CE81E066E00E94F8
S1130EC03A056091D4007091D500CE010E94AF0321
S1130ED0CE010E941B058FED0E94F40483E60E945C
S1130EE0F40480E20E94F40480E20E94F40482E0AC
S1130EF061E00E943A05C7010E941B0580E20E943E
S1130F00F40480E20E94F40480E20E94F40480E28B
S1130F100E94F40482E664E00E94660582E660E0D2
S1130F200E94660582E661E00E9466051CBFBB9ACA
S1130F30B6CE1F920F920FB60F9211242F933F93A8
S1130F408F939F938091D2009091D30001969093B8
S1130F50D3008093D2002091D2003091D3008091AD
S1130F60D6009091D7008217930748F48091D0005F
S1130F709091D10001969093D1008093D0009F91DD
S1130F808F913F912F910F900FBE0F901F90189546
S1130F9083B7886083BF80E58CBF83B7816083BFDC
S1130FA083B7846083BF789489B7826089BF0895CA
S1130FB00F931F93CF93DF93EC018B0182E663E0E1
S1130FC041E00E946A0083B7886083BFCC0FDD1FB5
S1130FD0C09F9001C19F300DD09F300D112440E07F
S1130FE050E060E072E18AE790E00E94CB09CA0118
S1130FF0B9010E94C70820E030E040E85FE30E94A6
S113100036080E949B086CBF83B7816083BF83B797
S1131010846083BF83B7806183BFDF91CF911F91C9
S11310200F91089582B5886082BD85B5816085BDC4
S113103085B5846085BD789489B7806489BF089537
S1131040789489B7816089BF83B7806483BF83B78D
S1131050886083BF80E48CBF83B7816083BF83B71C
S1131060846083BF83B7806283BF08955058BB27D1
S1131070AA270ED0E0C0D1D030F0D6D020F031F481
S11310809F3F11F41EF4C6C00EF4E095E7FBBCC00C
S1131090E92FE2D080F3BA17620773078407950734
S11310A018F071F49EF5FAC00EF4E0950B2EBA2FE9
S11310B0A02D0B01B90190010C01CA01A00111245A
S11310C0FF27591B99F0593F50F4503E68F11A1606
S11310D0F040A22F232F342F4427585FF3CF469597
S11310E037952795A795F0405395C9F77EF41F16B9
S11310F0BA0B620B730B840BBAF09150A1F0FF0F83
S1131100BB1F661F771F881FC2F70EC0BA0F621F6E
S1131110731F841F48F4879577956795B795F7955E
S11311209E3F08F0B3CF9395880F08F09927EE0FF0
S113113097958795089598D088F09F5790F0B92F88
S11311409927B751A0F0D1F0660F771F881F991F18
S11311501AF0BA95C9F712C0B13081F09FD0B1E04E
S113116008959CC0672F782F8827B85F39F0B93F5E
S1131170CCF3869577956795B395D9F73EF490951A
S11311808095709561957F4F8F4F9F4F0895E89498
S113119009C097FB3EF490958095709561957F4FBB
S11311A08F4F9F4F9923A9F0F92F96E9BB27939569
S11311B0F695879577956795B795F111F8CFFAF479
S11311C0BB0F11F460FF1BC06F5F7F4F8F4F9F4FAA
S11311D016C0882311F096E911C0772321F09EE808
S11311E0872F762F05C0662371F096E8862F70E06E
S11311F060E02AF09A95660F771F881FDAF7880F48
S11312009695879597F9089597F99F6780E870E018
S113121060E008959FEF80EC089500240A94161668
S1131220170618060906089500240A9412161306D0
S1131230140605060895092E0394000C11F488235E
S113124052F0BB0F40F4BF2B11F460FF04C06F5F7A
S11312507F4F8F4F9F4F089557FD9058440F551F50
S113126059F05F3F71F04795880F97FB991F61F024
S11312709F3F79F087950895121613061406551F9B
S1131280F2CF4695F1DF08C0161617061806991F07
S1131290F1CF86957105610508940895E894BB27FC
S11312A066277727CB0197F908950BD0C4CFB5DF14
S11312B028F0BADF18F0952309F0A6CFABCF11249C
S11312C0EECFCADFA0F3959FD1F3950F50E0551FE1
S11312D0629FF001729FBB27F00DB11D639FAA2787
S11312E0F00DB11DAA1F649F6627B00DA11D661FD6
S11312F0829F2227B00DA11D621F739FB00DA11DF7
S1131300621F839FA00D611D221F749F3327A00DB0
S1131310611D231F849F600D211D822F762F6A2F4C
S113132011249F5750408AF0E1F088234AF0EE0FD1
S1131330FF1FBB1F661F771F881F91505040A9F7DE
S11313409E3F510570F060CFAACF5F3FECF3983E0B
S1131350DCF3869577956795B795F795E7959F5F45
S1131360C1F7FE2B880F911D9695879597F90895DF
S113137097FB092E07260AD077FD04D02ED006D07D
S113138000201AF4709561957F4F0895F6F79095B3
S113139081959F4F0895A1E21A2EAA1BBB1BFD0144
S11313A00DC0AA1FBB1FEE1FFF1FA217B307E40740
S11313B0F50720F0A21BB30BE40BF50B661F771F98
S11313C0881F991F1A9469F7609570958095909578
S11313D09B01AC01BD01CF010895AA1BBB1B51E1C8
S11313E007C0AA1FBB1FA617B70710F0A61BB70B91
S11313F0881F991F5A95A9F780959095BC01CD0136
S10914000895F894FFCFEB
S11314063738392F3435362A3132333441303D2B8F
S113141674696D65206D31207365633D0074696D73
S113142665206D32207365633D006C6574277320F7
S113143673746172740074656D70203A006C6F2069
S113144674656D70004D6F646572617465207465B2
S11314566D700068692074656D702121007665726F
S1111466792068692074656D70212100FF00F3
S9030000FC
